:100000000C94B4000C9428070C9428070C9428072F
:100010000C9428070C9428070C9428070C942807A4
:100020000C9428070C9428070C9428070C94280794
:100030000C9428070C9428070C9428070C94280784
:100040000C9428070C9428070C9428070C94280774
:100050000C9428070C9428070C9428070C94280764
:100060000C9428070C9428070100016580000040CB
:100070007A10F35A00A0724E18090010A5D4E800B7
:1000800000E87648170000E40B54020000CA9A3BCF
:10009000000000E1F5050000809698000000404255
:1000A0000F000000A08601000000102700000000E3
:1000B000E803000000006400000000000A000000E7
:1000C00000000100000000002C76D888DC674F0893
:1000D00023DFC1DFAE59E1B1B796E5E3E453C63A99
:1000E000E651997696E8E6C28426EB898C9B62ED10
:1000F000407C6FFCEFBC9C9F40F2BAA56FA5F490CA
:10010000055A2AF75C936B6CF9676DC11BFCE0E440
:100110000D47FEF520E6B500D0ED902E0300943596
:1001200077050080841E080000204E0A000000C8E9
:100130000C333333330F986E12831141EF8D21143A
:10014000893BE65516CFFEE6DB18D1844B381BF70A
:100150007C1D901DA4BBE424203284725E228100A9
:10016000C9F124ECA1E53D2711241FBECFEFD8E053
:10017000DEBFCDBFE8E6F0E040E017C0B591A59145
:1001800035912591059107FD0CC095918591EF0161
:10019000F92FE82F05900D92A217B307D9F7FE01AA
:1001A00004C01D92A217B307E1F7ED36F40731F74B
:0C01B0000E9459060C94DC00F894FFCF6C
:1001BC00636F6E66696775726163696F6E206578CF
:0801CC0069746F73610D0A00F4
:0801D400696E66006E616E00A9
:1001DC00A4E1B0E0E4EFF0E00C949E066C011A018F
:1001EC00462E5901FC0110861782848181FF62C35F
:1001FC00CE0101969D878C87A0E88A8B9B8BAC8B5C
:10020C00F101849147FC8081882309F44FC3442D6C
:10021C0091012F5F3F4F4F4F853219F01901442E3A
:10022C000AC0F901849147FD808192E0290E311CAE
:10023C00411C853249F4B60190E00E941D06BF8630
:10024C00AE86AE84BF84DCCF10E0F12C00E000322F
:10025C00A0F48B3269F030F4803259F0833269F4B7
:10026C0000612CC08D3239F0803339F4016026C026
:10027C000260046023C0086021C007FD29C090ED16
:10028C00980F9A3078F406FF06C0AAE01A9F900DDA
:10029C001124192F13C0EAE0FE9E900D1124F92EA3
:1002AC0000620CC08E3221F406FD00C3006406C04F
:1002BC008C3611F4006802C0883651F4F101849137
:1002CC0047FC8081FFEF2F1A3F0A4F0A8111BFCFE5
:1002DC009BEB980F933018F40061805E06C09BE98D
:1002EC00980F933008F066C10F7E06FF16E00F736F
:1002FC00702E853621F4202F2064722E08C086368D
:10030C0021F4802F8068782E02C01111115077FED5
:10031C0007C01C3350F4EE24E394E10E27E00BC02D
:10032C00183038F027E017E005C027E06CE3E62E24
:10033C0002C0212FE12CF5013496FF87EE87F501E1
:10034C0060817181828193810E2DAE014F5F5F4F71
:10035C000E9490045C01598050FE02C053FE06C0FE
:10036C0071FC06C072FE06C000E205C00DE203C0BF
:10037C000BE201C000E0852D8C7019F0011173C2E5
:10038C00BEC277FE0FC0EA0C54FE04C08A818133D2
:10039C0009F4EA941E1474F528E02E1578F538E06B
:1003AC00E32E2CC076FC2AC0812F90E08A159B0589
:1003BC009CF08CEFA8168FEFB80674F0972D906810
:1003CC00792E0AC0E2E0F0E0EC0FFD1FE10FF11D09
:1003DC008081803319F411501111F4CF77FE0EC0C7
:1003EC00EE24E394E10E812F90E0A816B9062CF4CC
:1003FC001A1904C0EE24E39401C010E077FE06C085
:10040C001A141B0434F4C501019605C085E090E074
:10041C0002C081E090E001110196112331F0212FEF
:10042C0030E02F5F3F4F820F931F2F2D30E082174C
:10043C00930714F4F81A01C0F12C872D897049F434
:10044C00FF2039F0B60180E290E00E941D06FA947C
:10045C00F7CF002329F0B601802F90E00E941D06F3
:10046C0073FC09C0FF2039F0B60180E390E00E94D4
:10047C001D06FA94F7CF77FE49C03501B7FE02C0CE
:10048C00612C712CC5018619970988248394912CB1
:10049C008C0E9D1E880E991EF501EE19F109F98B33
:1004AC00E88B012F10E0119501951109FFEF6F16E4
:1004BC007F0629F4B6018EE290E00E941D06A61478
:1004CC00B70444F088899989861597051CF4F401C2
:1004DC00818101C080E3F1E06F1A71082FEF821A5D
:1004EC00920A601671062CF0B60190E00E941D066F
:1004FC00DDCFA614B70439F49A81963318F49533EA
:10050C0011F454FE81E3B60190E051C08A8181332D
:10051C0019F0952D9F7E592EB60190E00E941D0674
:10052C00111105C074FC1CC085E690E01BC0B6011F
:10053C008EE290E00E941D0602E0010F82E011E0C5
:10054C00180FE1E0F0E0EC0FFD1FE80FF11D8081CA
:10055C00B60190E00E941D06812F1013F0CFE2CF60
:10056C0085E490E0B6010E941D06B7FC05C0A114FD
:10057C00B10439F454FE05C0B194A194B1088DE2D4
:10058C0001C08BE2B60190E00E941D0680E3EAE018
:10059C00AE16B1042CF08F5FAAE0AA1AB108F7CFFF
:1005AC00B60190E00E941D06B601C501C0960E94DE
:1005BC001D0672C1833631F0833791F0833509F013
:1005CC005DC024C0C50102969F878E87F50180818E
:1005DC0089836A887B888C88AA24A394B12C14C044
:1005EC00C50103969F878E87F5016080718082809C
:1005FC0006FF03C0412F50E002C04FEF5FEF882D84
:10060C00B3010E94D5065C010F7715C0C501039696
:10061C009F878E87F50160807180828006FF03C002
:10062C00412F50E002C04FEF5FEF882DB3010E94C5
:10063C00D5065C01006803FD1DC08F2D90E0A81647
:10064C00B906C0F4B60180E290E00E941D06FA944F
:10065C00F4CFF301849187FC8081FFEF6F1A7F0A3E
:10066C008F0AB60190E00E941D06F110FA9421E069
:10067C00A21AB108A114B10461F70EC1843611F0AD
:10068C00893679F5C50107FF09C004969F878E87C7
:10069C00F50160817181828193810AC002969F87E6
:1006AC008E87F50160817181072E000C880B990BE8
:1006BC000F76E02E97FF0AC0909580957095619506
:1006CC007F4F8F4F9F4FF02FF068EF2E2AE030E0D6
:1006DC00AE014F5F5F4F0E946805A82E2C85A21AB1
:1006EC004BC0853729F40F7EE02E2AE030E025C080
:1006FC00902F997FE92E8F36C1F018F4883579F058
:10070C00D5C0803719F0883721F0D0C0A92FA0614F
:10071C00EA2EE4FE0DC0EE2DE460EE2E09C004FFBF
:10072C000AC0F92FF660EF2E06C028E030E005C0B5
:10073C0020E130E002C020E132E0C501E7FE09C053
:10074C0004969F878E87F5016081718182819381E8
:10075C0008C002969F878E87F5016081718180E0C9
:10076C0090E0AE014F5F5F4F0E946805A82EFC859C
:10077C00AF1A2E2D2F77E22EE6FE0BC00E2D0E7F1C
:10078C00A11650F4E4FE0AC0E2FC08C00E2D0E7E49
:10079C0005C0BA2C0E2D03C0BA2C01C0B12E04FF1B
:1007AC000DC0FE01EA0DF11D8081803311F4097E2C
:1007BC0009C002FF06C0B394B39404C0802F86789E
:1007CC0009F0B39403FD11C000FF06C0BF1488F4F8
:1007DC00FA0C1F2D1B190EC0BF1460F4B60180E279
:1007EC0090E00E941D06B394F7CFBF1418F4FB18C9
:1007FC0002C01A2DF12C04FF10C0B60180E390E06A
:10080C000E941D0602FF17C001FD03C088E790E09F
:10081C0002C088E590E0B6010CC0802F867859F0B4
:10082C0001FF02C08BE201C080E207FD8DE2B60140
:10083C0090E00E941D06A11638F4B60180E390E00A
:10084C000E941D061150F7CFAA94E1E0F0E0EC0FE6
:10085C00FD1FEA0DF11D8081B60190E00E941D067E
:10086C00A110F2CF19C0F4E0FF1580F584E0F81A5E
:10087C0073FE23C001112BC053FE2FC058ED852EE3
:10088C0051E0952E50E0A52E072D0071F4018491B6
:10089C00A7FC8081811128C0FF2009F4D2CCB601BD
:1008AC0080E290E00E941D06FA94F6CFF601878153
:1008BC0090852CC08FEF9FEF29C0B60180E290E0AD
:1008CC000E941D06FA94F110F8CFD4CFF12CB6018A
:1008DC00802F90E00E941D06CFCF44ED842E41E086
:1008EC00942E40E0A42ED0CF01118052B60190E09E
:1008FC000E941D06FFEF8F1A9F0AAF0AC7CF23E095
:10090C002F1510F483E0B3CFF12CB6CF6496E2E14F
:04091C000C94BA0677
:10092000283008F027E03327DA01990F311D87FDC1
:10093000916000966105710539F432602E5F3D9338
:1009400030E32A95E1F708959F3F30F08038710534
:10095000610509F03C5F3C5F3D93913008F0806891
:10096000911DDF93CF931F930F93FF92EF92192F57
:10097000987F9695E92F96959695E90FFF27E8536E
:10098000FF4F99273327EE24FF24A701E7010590A5
:100990000894079428F4360FE71EF81E491F511DCE
:1009A000660F771F881F991F0694A1F7059007947B
:1009B00028F4E70EF81E491F561FC11D770F881F28
:1009C000991F661F0694A1F70590079428F4F80E66
:1009D000491F561FC71FD11D880F991F661F771FFC
:1009E0000694A1F70590079420F4490F561FC71FDE
:1009F000D81F990F661F771F881F0694A9F7849147
:100A00001095177041F0D695C79557954795F7946F
:100A1000E7941A95C1F7EEE6F0E068941590159109
:100A200035916591959105907FE27395E118F10AF2
:100A3000430B560BC90BD009C0F7E10CF11E431F45
:100A4000561FC91FD01D7EF4703311F48A95E6CF6E
:100A5000E894015030F0080F0AF40027021708F458
:100A6000202F2395022F7A3328F079E37D932A955E
:100A7000E9F710C07D932A9589F6069497956795B6
:100A8000379517951794E118F10A430B560BC90BCC
:100A9000D00998F023957E9173957A3308F070E32E
:100AA0007C932013B8F77E9170617D9330F083952D
:100AB00071E37D9370E32A95E1F71124EF90FF90A5
:100AC0000F911F91CF91DF91992787FD9095089500
:100AD000FA01AA27283051F1203181F1E8946F936F
:100AE0006E7F6E5F7F4F8F4F9F4FAF4FB1E03ED015
:100AF000B4E03CD0670F781F891F9A1FA11D680FB3
:100B0000791F8A1F911DA11D6A0F711D811D911DE5
:100B1000A11D20D009F468943F912AE0269F11245A
:100B20003019305D3193DEF6CF010895462F4770BE
:100B3000405D4193B3E00FD0C9F7F6CF462F4F7019
:100B4000405D4A3318F0495D31FD4052419302D077
:100B5000A9F7EACFB4E0A69597958795779567951D
:100B6000BA95C9F700976105710508959B01AC011D
:100B70000A2E06945795479537952795BA95C9F744
:0C0B8000620F731F841F951FA01D0895B5
:100B8C004230F1F4E0ECF0E0208122602083DC01C3
:100B9C00CB01880F991FAA1FBB1F880F991FAA1F73
:100BAC00BB1F9C01AD01220F331F441F551F60E07A
:100BBC0074E284EF90E00E947C062150310925C03C
:100BCC00411121C0E0ECF0E020812083DC01CB015D
:100BDC00880F991FAA1FBB1F880F991FAA1FBB1F25
:100BEC009C01AD01220F331F441F551F220F331FD1
:100BFC00441F551F60E074E284EF90E00E947C0675
:100C0C002150310902C020E030E03093C500209320
:100C1C00C400E1ECF0E080818861808380818B7F6F
:0E0C2C008083E2ECF0E0808186608083089592
:100C3A000F931F93CF93DF93FB01248121FD03C000
:100C4A008FEF9FEF2CC022FF16C047815085258168
:100C5A0036814217530744F4A081B1819D012F5F69
:100C6A003F4F318320838C93278130852F5F3F4FFD
:100C7A003087278314C08B01EC01FB010184F285C4
:100C8A00E02D0995892BE1F6D80117968D919C9153
:100C9A001897019618969C938E931797CE01DF9119
:080CAA00CF911F910F910895F5
:100CB200259A40E060E875E280E090E00E94C60577
:100CC200F894789428E130E04CEB51E060E080E069
:100CD20091E00E94F00680E091E00E9409070E94E4
:100CE200200780936401813311F42D9AF8CF823367
:060CF200B1F715B8F4CFC4
:100CF800A1E21A2EAA1BBB1BFD010DC0AA1FBB1F18
:100D0800EE1FFF1FA217B307E407F50720F0A21B89
:100D1800B30BE40BF50B661F771F881F991F1A94F6
:100D280069F760957095809590959B01AC01BD0120
:040D3800CF0108954A
:100D3C002F923F924F925F926F927F928F929F92DF
:100D4C00AF92BF92CF92DF92EF92FF920F931F93CD
:100D5C00CF93DF93CDB7DEB7CA1BDB0B0FB6F8947E
:080D6C00DEBF0FBECDBF0994EC
:100D74002A88398848885F846E847D848C849B8427
:100D8400AA84B984C884DF80EE80FD800C811B8135
:100D9400AA81B981CE0FD11D0FB6F894DEBF0FBE64
:060DA400CDBFED01089532
:100DAA00CF92DF92EF926B01E82EA82FCB0141156B
:100DBA00510531F48C199D09EF90DF90CF90089579
:100DCA00FC012491A7FD20812223A1F30196A11DF4
:060DDA0041505109ECCF6D
:100DE000CF92DF92EF92DC016A01E62E280F391FC5
:100DF000A217B30751F0F6014491E7FC40814D93EF
:100E00004FEFC41AD40AE40AF3CFEF90DF90CF90EB
:020E1000089543
:100E1200CF93DF93EC018881882331F021960E94E1
:0E0E2200180789918111FBCFDF91CF910895C0
:100E3000E0ECF0E0908195FFFDCF8093C60008952F
:100E4000E0ECF0E080818823ECF78091C600089503
:040E50000C940000FE
:00000001FF
