:100000000C9434000C947A000C947A000C947A00CE
:100010000C947A000C947A000C947A000C947A0078
:100020000C947A000C947A000C947A000C947A0068
:100030000C947A000C947A000C947A000C947A0058
:100040000C947A000C947A000C947A000C947A0048
:100050000C947A000C947A000C947A000C947A0038
:100060000C947A000C947A0011241FBECFEFD8E0D4
:10007000DEBFCDBF0E9440000C943E00F894FFCF3D
:1000800084B18E7F84B984B18C6084B980E005C06E
:10009000189BFECF1899FECF8F5F8530C8F390E094
:1000A0000EC025B184E0822785B92FE53AEE80E0C5
:1000B000215030408040E1F700C000009F5F943144
:1000C00080F385B1887F85B990E00EC025B188E0C6
:1000D000822785B92FE53AEE80E0215030408040FC
:1000E000E1F700C000009F5F943180F385B18C6020
:0400F00085B9FFCF00
:0400F4000C94000068
:00000001FF
