:100000000C9437000C9494000C94C7000C94C70017
:100010000C94C7000C94C7000C94C7000C94C70044
:100020000C94C7000C94C7000C94C7000C94C70034
:100030000C94C7000C94C7000C94A6000C94C70045
:100040000C94C7000C94C7000C94C7000C94C70014
:100050000C94C7000C94C7000C94C7000C94C70004
:100060000C94C7000C94C70001000101800011240A
:100070001FBECFEFD8E0DEBFCDBFE8E6F0E040E046
:1000800017C0B591A59135912591059107FD0CC03B
:1000900095918591EF01F92FE82F05900D92A21708
:1000A000B307D9F7FE0104C01D92A217B307E1F709
:1000B000ED36F40731F70E9461000C945F00F8946C
:0200C000FFCF70
:1000C2000E94B80084B1846184B90E94800078944F
:1000D2008091000188BD809100018E5F80930001B4
:1000E2008F3118F081E0809300012FEF80E792E0DA
:0E00F200215080409040E1F700C00000E9CFAF
:100100008AB180628AB985B5846085BD84B5836013
:1001100084BD85B5886085BD84B5806284BD8EE16F
:0801200087BD81E088BD089550
:100128001F920F920FB60F9211248F939F9395B140
:1001380080E2892785B99F918F910F900FBE0F900C
:040148001F90189557
:10014C001F920F920FB60F9211248F939F9395B11C
:10015C0084E0892785B99F918F910F900FBE0F90E6
:04016C001F90189533
:100170008AB18B7F8AB98BB184608BB9E9E6F0E0F4
:0E0180008081826080838DB381608DBB089585
:04018E000C940000CD
:00000001FF
