:100000000C94B4000C9478070C9478070C9478073F
:100010000C9478070C9478070C9478070C94780764
:100020000C9478070C9478070C9478070C94780754
:100030000C9478070C9478070C9478070C94780744
:100040000C9478070C9478070C9478070C94780734
:100050000C9478070C9478070C9478070C94780724
:100060000C9478070C947807010001688000004028
:100070007A10F35A00A0724E18090010A5D4E800B7
:1000800000E87648170000E40B54020000CA9A3BCF
:10009000000000E1F5050000809698000000404255
:1000A0000F000000A08601000000102700000000E3
:1000B000E803000000006400000000000A000000E7
:1000C00000000100000000002C76D888DC674F0893
:1000D00023DFC1DFAE59E1B1B796E5E3E453C63A99
:1000E000E651997696E8E6C28426EB898C9B62ED10
:1000F000407C6FFCEFBC9C9F40F2BAA56FA5F490CA
:10010000055A2AF75C936B6CF9676DC11BFCE0E440
:100110000D47FEF520E6B500D0ED902E0300943596
:1001200077050080841E080000204E0A000000C8E9
:100130000C333333330F986E12831141EF8D21143A
:10014000893BE65516CFFEE6DB18D1844B381BF70A
:100150007C1D901DA4BBE424203284725E228100A9
:10016000C9F124ECA1E53D2711241FBECFEFD8E053
:10017000DEBFCDBFE8E6F0E040E017C0B591A59145
:1001800035912591059107FD0CC095918591EF0161
:10019000F92FE82F05900D92A217B307D9F7FE01AA
:1001A00004C01D92A217B307E1F7ED36F40731F74B
:0C01B0000E94CC050C94DC00F894FFCFFA
:1001BC00636F6E66696775726163696F6E20636FDA
:1001CC007272656374610D0A004144432D3E2564CF
:0301DC000D0A0009
:0801DF00696E66006E616E009E
:1001E800A4E1B0E0EAEFF0E00C94D2066C011A0149
:1001F800462E5901FC0110861782848181FF62C353
:10020800CE0101969D878C87A0E88A8B9B8BAC8B4F
:10021800F101849147FC8081882309F44FC3442D60
:1002280091012F5F3F4F4F4F853219F01901442E2E
:100238000AC0F901849147FD808192E0290E311CA2
:10024800411C853249F4B60190E00E942306BF861E
:10025800AE86AE84BF84DCCF10E0F12C00E0003223
:10026800A0F48B3269F030F4803259F0833269F4AB
:1002780000612CC08D3239F0803339F4016026C01A
:100288000260046023C0086021C007FD29C090ED0A
:10029800980F9A3078F406FF06C0AAE01A9F900DCE
:1002A8001124192F13C0EAE0FE9E900D1124F92E97
:1002B80000620CC08E3221F406FD00C3006406C043
:1002C8008C3611F4006802C0883651F4F10184912B
:1002D80047FC8081FFEF2F1A3F0A4F0A8111BFCFD9
:1002E8009BEB980F933018F40061805E06C09BE981
:1002F800980F933008F066C10F7E06FF16E00F7363
:10030800702E853621F4202F2064722E08C0863680
:1003180021F4802F8068782E02C01111115077FEC9
:1003280007C01C3350F4EE24E394E10E27E00BC021
:10033800183038F027E017E005C027E06CE3E62E18
:1003480002C0212FE12CF5013496FF87EE87F501D5
:1003580060817181828193810E2DAE014F5F5F4F65
:100368000E9496045C01598050FE02C053FE06C0EC
:1003780071FC06C072FE06C000E205C00DE203C0B3
:100388000BE201C000E0852D8C7019F0011173C2D9
:10039800BEC277FE0FC0EA0C54FE04C08A818133C6
:1003A80009F4EA941E1474F528E02E1578F538E05F
:1003B800E32E2CC076FC2AC0812F90E08A159B057D
:1003C8009CF08CEFA8168FEFB80674F0972D906804
:1003D800792E0AC0E2E0F0E0EC0FFD1FE10FF11DFD
:1003E8008081803319F411501111F4CF77FE0EC0BB
:1003F800EE24E394E10E812F90E0A816B9062CF4C0
:100408001A1904C0EE24E39401C010E077FE06C078
:100418001A141B0434F4C501019605C085E090E068
:1004280002C081E090E001110196112331F0212FE3
:1004380030E02F5F3F4F820F931F2F2D30E0821740
:10044800930714F4F81A01C0F12C872D897049F428
:10045800FF2039F0B60180E290E00E942306FA946A
:10046800F7CF002329F0B601802F90E00E942306E1
:1004780073FC09C0FF2039F0B60180E390E00E94C8
:100488002306FA94F7CF77FE49C03501B7FE02C0BC
:10049800612C712CC5018619970988248394912CA5
:1004A8008C0E9D1E880E991EF501EE19F109F98B27
:1004B800E88B012F10E0119501951109FFEF6F16D8
:1004C8007F0629F4B6018EE290E00E942306A61466
:1004D800B70444F088899989861597051CF4F401B6
:1004E800818101C080E3F1E06F1A71082FEF821A51
:1004F800920A601671062CF0B60190E00E9423065D
:10050800DDCFA614B70439F49A81963318F49533DD
:1005180011F454FE81E3B60190E051C08A81813321
:1005280019F0952D9F7E592EB60190E00E94230662
:10053800111105C074FC1CC085E690E01BC0B60113
:100548008EE290E00E94230602E0010F82E011E0B3
:10055800180FE1E0F0E0EC0FFD1FE80FF11D8081BE
:10056800B60190E00E942306812F1013F0CFE2CF4E
:1005780085E490E0B6010E942306B7FC05C0A114EB
:10058800B10439F454FE05C0B194A194B1088DE2C8
:1005980001C08BE2B60190E00E94230680E3EAE006
:1005A800AE16B1042CF08F5FAAE0AA1AB108F7CFF3
:1005B800B60190E00E942306B601C501C0960E94CC
:1005C800230672C1833631F0833791F0833509F001
:1005D8005DC024C0C50102969F878E87F501808182
:1005E80089836A887B888C88AA24A394B12C14C038
:1005F800C50103969F878E87F50160807180828090
:1006080006FF03C0412F50E002C04FEF5FEF882D77
:10061800B3010E9409075C010F7715C0C501039655
:100628009F878E87F50160807180828006FF03C0F6
:10063800412F50E002C04FEF5FEF882DB3010E94B9
:1006480009075C01006803FD1DC08F2D90E0A81606
:10065800B906C0F4B60180E290E00E942306FA943D
:10066800F4CFF301849187FC8081FFEF6F1A7F0A32
:100678008F0AB60190E00E942306F110FA9421E057
:10068800A21AB108A114B10461F70EC1843611F0A1
:10069800893679F5C50107FF09C004969F878E87BB
:1006A800F50160817181828193810AC002969F87DA
:1006B8008E87F50160817181072E000C880B990BDC
:1006C8000F76E02E97FF0AC09095809570956195FA
:1006D8007F4F8F4F9F4FF02FF068EF2E2AE030E0CA
:1006E800AE014F5F5F4F0E946E05A82E2C85A21A9F
:1006F8004BC0853729F40F7EE02E2AE030E025C074
:10070800902F997FE92E8F36C1F018F4883579F04B
:10071800D5C0803719F0883721F0D0C0A92FA06143
:10072800EA2EE4FE0DC0EE2DE460EE2E09C004FFB3
:100738000AC0F92FF660EF2E06C028E030E005C0A9
:1007480020E130E002C020E132E0C501E7FE09C047
:1007580004969F878E87F5016081718182819381DC
:1007680008C002969F878E87F5016081718180E0BD
:1007780090E0AE014F5F5F4F0E946E05A82EFC858A
:10078800AF1A2E2D2F77E22EE6FE0BC00E2D0E7F10
:10079800A11650F4E4FE0AC0E2FC08C00E2D0E7E3D
:1007A80005C0BA2C0E2D03C0BA2C01C0B12E04FF0F
:1007B8000DC0FE01EA0DF11D8081803311F4097E20
:1007C80009C002FF06C0B394B39404C0802F867892
:1007D80009F0B39403FD11C000FF06C0BF1488F4EC
:1007E800FA0C1F2D1B190EC0BF1460F4B60180E26D
:1007F80090E00E942306B394F7CFBF1418F4FB18B7
:1008080002C01A2DF12C04FF10C0B60180E390E05D
:100818000E94230602FF17C001FD03C088E790E08D
:1008280002C088E590E0B6010CC0802F867859F0A8
:1008380001FF02C08BE201C080E207FD8DE2B60134
:1008480090E00E942306A11638F4B60180E390E0F8
:100858000E9423061150F7CFAA94E1E0F0E0EC0FD4
:10086800FD1FEA0DF11D8081B60190E00E9423066C
:10087800A110F2CF19C0F4E0FF1580F584E0F81A52
:1008880073FE23C001112BC053FE2FC053EE852EDB
:1008980051E0952E50E0A52E072D0071F4018491AA
:1008A800A7FC8081811128C0FF2009F4D2CCB601B1
:1008B80080E290E00E942306FA94F6CFF601878141
:1008C80090852CC08FEF9FEF29C0B60180E290E0A1
:1008D8000E942306FA94F110F8CFD4CFF12CB60178
:1008E800802F90E00E942306CFCF4FED842E41E069
:1008F800942E40E0A42ED0CF01118052B60190E092
:100908000E942306FFEF8F1A9F0AAF0AC7CF23E082
:100918002F1510F483E0B3CFF12CB6CF6496E2E143
:040928000C94EE0637
:10092C00283008F027E03327DA01990F311D87FDB5
:10093C00916000966105710539F432602E5F3D932C
:10094C0030E32A95E1F708959F3F30F08038710528
:10095C00610509F03C5F3C5F3D93913008F0806885
:10096C00911DDF93CF931F930F93FF92EF92192F4B
:10097C00987F9695E92F96959695E90FFF27E85362
:10098C00FF4F99273327EE24FF24A701E701059099
:10099C000894079428F4360FE71EF81E491F511DC2
:1009AC00660F771F881F991F0694A1F7059007946F
:1009BC0028F4E70EF81E491F561FC11D770F881F1C
:1009CC00991F661F0694A1F70590079428F4F80E5A
:1009DC00491F561FC71FD11D880F991F661F771FF0
:1009EC000694A1F70590079420F4490F561FC71FD2
:1009FC00D81F990F661F771F881F0694A9F784913B
:100A0C001095177041F0D695C79557954795F79463
:100A1C00E7941A95C1F7EEE6F0E0689415901591FD
:100A2C0035916591959105907FE27395E118F10AE6
:100A3C00430B560BC90BD009C0F7E10CF11E431F39
:100A4C00561FC91FD01D7EF4703311F48A95E6CF62
:100A5C00E894015030F0080F0AF40027021708F44C
:100A6C00202F2395022F7A3328F079E37D932A9552
:100A7C00E9F710C07D932A9589F6069497956795AA
:100A8C00379517951794E118F10A430B560BC90BC0
:100A9C00D00998F023957E9173957A3308F070E322
:100AAC007C932013B8F77E9170617D9330F0839521
:100ABC0071E37D9370E32A95E1F71124EF90FF9099
:100ACC000F911F91CF91DF91992787FD90950895F4
:100ADC00FA01AA27283051F1203181F1E8946F9363
:100AEC006E7F6E5F7F4F8F4F9F4FAF4FB1E03ED009
:100AFC00B4E03CD0670F781F891F9A1FA11D680FA7
:100B0C00791F8A1F911DA11D6A0F711D811D911DD9
:100B1C00A11D20D009F468943F912AE0269F11244E
:100B2C003019305D3193DEF6CF010895462F4770B2
:100B3C00405D4193B3E00FD0C9F7F6CF462F4F700D
:100B4C00405D4A3318F0495D31FD4052419302D06B
:100B5C00A9F7EACFB4E0A695979587957795679511
:100B6C00BA95C9F700976105710508959B01AC0111
:100B7C000A2E06945795479537952795BA95C9F738
:0C0B8C00620F731F841F951FA01D0895A9
:100B980080E895E20E945F0688E60E94710789E670
:100BA8000E9471078DE00E9471078AE00E94710718
:100BB80029E130E04CEB51E060E080E091E00E94F8
:100BC800240788E190E0909365018093640168E1CF
:100BD80070E080E091E00E9452070E94660780E082
:100BE8000E943D0780936601909367019F938F93BE
:100BF80085ED91E0A0E0AF939F938F9380E091E023
:100C08009F938F930E948D06909365018093640152
:100C1800BC0180E091E00E9452072FE986E891E04C
:100C2800215080409040E1F700C000008DB79EB78A
:0E0C380007960FB6F8949EBF0FBE8DBFD0CFAB
:100C46000F931F93CF93DF93FB01248121FD03C0F4
:100C56008FEF9FEF2CC022FF16C04781508525815C
:100C660036814217530744F4A081B1819D012F5F5D
:100C76003F4F318320838C93278130852F5F3F4FF1
:100C86003087278314C08B01EC01FB010184F285B8
:100C9600E02D0995892BE1F6D80117968D919C9147
:100CA6001897019618969C938E931797CE01DF910D
:080CB600CF911F910F910895E9
:100CBE00A0E0B0E0880F991FAA1FBB1F880F991FD5
:100CCE00AA1FBB1F9C01AD01220F331F441F551FCE
:100CDE0060E472E48FE090E00E94B006215031098A
:100CEE003093C5002093C40082E08093C000E1ECF5
:100CFE00F0E0808188618083E2ECF0E080818660A4
:0C0D0E0080838081808380818083089531
:100D1A00AFE0B0E0E3E9F6E00C94E0060E891F8943
:100D2A0086E08D831A8309838FEF9FE79F838E83E3
:100D3A009E01255E3F4F488D598D6A8DCE010196E1
:100D4A000E94F400E885F985E00FF11F10822F96C2
:060D5A00E4E00C94FC062D
:100D6000A1E21A2EAA1BBB1BFD010DC0AA1FBB1FAF
:100D7000EE1FFF1FA217B307E407F50720F0A21B21
:100D8000B30BE40BF50B661F771F881F991F1A948E
:100D900069F760957095809590959B01AC01BD01B8
:040DA000CF010895E2
:100DA4002F923F924F925F926F927F928F929F9277
:100DB400AF92BF92CF92DF92EF92FF920F931F9365
:100DC400CF93DF93CDB7DEB7CA1BDB0B0FB6F89416
:080DD400DEBF0FBECDBF099484
:100DDC002A88398848885F846E847D848C849B84BF
:100DEC00AA84B984C884DF80EE80FD800C811B81CD
:100DFC00AA81B981CE0FD11D0FB6F894DEBF0FBEFC
:060E0C00CDBFED010895C9
:100E1200CF92DF92EF926B01E82EA82FCB01411502
:100E2200510531F48C199D09EF90DF90CF90089510
:100E3200FC012491A7FD20812223A1F30196A11D8B
:060E420041505109ECCF04
:100E4800CF92DF92EF92DC016A01E62E280F391F5C
:100E5800A217B30751F0F6014491E7FC40814D9386
:100E68004FEFC41AD40AE40AF3CFEF90DF90CF9083
:020E78000895DB
:100E7A00ECE7F0E09081907F8F70892B8083EAE71E
:100E8A00F0E080818064808380917A0086FDFCCFC7
:0A0E9A00809178009091790008958E
:100EA4000F931F93CF93DF938C01EB0106C0F801DE
:100EB40081918F010E94710721972097C1F7DF91DB
:080EC400CF911F910F910895D9
:100ECC00ECE7F0E0808180648083EAE7F0E08081E9
:060EDC0087688083089581
:0E0EE2009091C00095FFFCCF8093C60008954C
:040EF0000C9400005E
:00000001FF
