:100000000C9437000C94C9000C94C9000C94C900DE
:100010000C94C9000C94C9000C94C9000C94C9003C
:100020000C94C9000C94C9000C94C9000C94C9002C
:100030000C94C9000C94C9000C94C9000C94C9001C
:100040000C94C9000C94C9000C94C9000C94C9000C
:100050000C94C9000C94C9000C94C9000C94C900FC
:100060000C94C9000C94C900010001038000112404
:100070001FBECFEFD8E0DEBFCDBFE8E6F0E040E046
:1000800017C0B591A59135912591059107FD0CC03B
:1000900095918591EF01F92FE82F05900D92A21708
:1000A000B307D9F7FE0104C01D92A217B307E1F709
:1000B000ED36F40731F70E9461000C945F00F8946C
:0200C000FFCF70
:1000C2008AB18B7F8AB98BB184608BB90E94B100EF
:1000D2008FEF84B94A990DC04A9BFECF95B180E259
:1000E200892785B98091010191E0892780930101D7
:1000F20095B980910101813051F4809100010E94F3
:10010200C00087EA91E60197F1F700C000008091F4
:1001120000018F5F80930001883010F0109200017F
:100122008091C0008823E4F78091C6008093020189
:100132009FE9980F9A3120F480528093020107C000
:100142009FEB980F9A3118F4805E809302018091A0
:10015200C00085FFFCCF809102018093C600BACF18
:100162001092C5008CE08093C40082E08093C000AE
:0E01720086E08093C20088E18093C10008956A
:1001800021E030E002C0220F331F8A95E2F725B943
:020190000895D0
:040192000C940000C9
:00000001FF
