:100000000C9437000C943A010C943A010C943A0188
:100010000C943A010C943A010C943A010C943A0174
:100020000C943A010C943A010C943A010C943A0164
:100030000C943A010C943A010C943A010C943A0154
:100040000C943A010C943A010C943A010C943A0144
:100050000C943A010C943A010C943A010C943A0134
:100060000C943A010C943A010100013580001124EE
:100070001FBECFEFD8E0DEBFCDBFE8E6F0E040E046
:1000800017C0B591A59135912591059107FD0CC03B
:1000900095918591EF01F92FE82F05900D92A21708
:1000A000B307D9F7FE0104C01D92A217B307E1F709
:1000B000ED36F40731F70E946D000C945F00F89460
:0200C000FFCF70
:1000C200313532333231303231390D0A00476F6EF9
:0800D2007A616C65730D0A00F0
:1000DA0084B1807F84B985B18F6085B987B18F7EFD
:1000EA0087B988B1806188B980EC92E10E94B60034
:1000FA003499FECF04C083B18F7080933201349B50
:10010A00FACF809132018930B0F42DE030E042EC30
:10011A0050E060E080E091E00E9406018CE090E00F
:10012A0090933401809333016CE070E080E091E0B9
:10013A000E941F01DDCF2BE030E04FEC50E060E081
:10014A0080E091E00E9406018AE090E090933401F9
:10015A00809333016AE070E080E091E00E941F0121
:02016A00C7CFFD
:10016C00A0E0B0E0880F991FAA1FBB1F880F991F32
:10017C00AA1FBB1F9C01AD01220F331F441F551F2B
:10018C0060E472E48FE090E00E94E40021503109B9
:10019C003093C5002093C40082E08093C000E1EC52
:1001AC00F0E0808188618083E2ECF0E08081866001
:0C01BC008083808180838081808308958F
:1001C800A1E21A2EAA1BBB1BFD010DC0AA1FBB1F53
:1001D800EE1FFF1FA217B307E407F50720F0A21BC5
:1001E800B30BE40BF50B661F771F881F991F1A9432
:1001F80069F760957095809590959B01AC01BD015C
:04020800CF01089585
:10020C00CF92DF92EF92DC016A01E62E280F391FA4
:10021C00A217B30751F0F6014491E7FC40814D93CE
:10022C004FEFC41AD40AE40AF3CFEF90DF90CF90CB
:02023C00089523
:10023E000F931F93CF93DF938C01EB0106C0F80150
:10024E0081918F010E94330121972097C1F7DF9191
:08025E00CF911F910F9108954B
:0E0266009091C00095FFFCCF8093C6000895D4
:040274000C940000E6
:00000001FF
