:100000000C9434000C9406040C9406040C9406041E
:100010000C9406040C9406040C9406040C94060438
:100020000C9406040C9406040C9406040C94060428
:100030000C9406040C9406040C9406040C94060418
:100040000C9406040C9406040C9406040C94060408
:100050000C9406040C9406040C9406040C940604F8
:100060000C9406040C94060411241FBECFEFD8E0B4
:10007000DEBFCDBF0E94FD030C943E00F894FFCF7D
:03008000256400F4
:100084002F923F924F926F927F928F929F92AF9254
:10009400BF92CF92DF92EF92FF920F931F93CF9371
:1000A400DF93CDB7DEB762970FB6F894DEBF0FBE0D
:1000B400CDBF6C013A01862E7901FC0110861782AE
:1000C400848181FFE7C19E012F5F3F4F3D872C87CD
:1000D400C901A0E8888B998BAA8B9FE3992EF30121
:1000E400849187FC8081882309F4D0C1482D930131
:1000F4002F5F3F4F4F4F853219F03901842E0AC0CC
:10010400F901849147FD808192E0690E711C811C84
:10011400853229F4B60190E00E94C402E0CFB12CEC
:1001240000E010E01032A0F48B3269F030F4803239
:1001340059F0833269F410612CC08D3239F0803368
:1001440039F4116026C01260146023C0186021C005
:1001540017FD29C090ED980F9A3078F416FF06C069
:10016400AAE0BA9E900D1124B92E13C0EAE00E9FA6
:10017400900D1124092F10620CC08E3221F416FD4B
:1001840085C1106406C08C3611F4106802C088362C
:1001940051F4F301849187FC8081FFEF6F1A7F0A89
:1001A4008F0A8111BFCF982F9F7D9554933028F4E7
:1001B40024E0E20EF11C99820FC0833631F08337BC
:1001C40091F0833509F063C027C0F70180818983EA
:1001D40097012E5F3F4F7901288839884A88AA24DD
:1001E400A394B12C17C0A7014D5F5F4F5F874E8763
:1001F400F70120803180428016FF03C04B2D50E070
:1002040002C04FEF5FEF842DB1010E94C7035C0170
:10021400EE84FF841F7718C097012D5F3F4F3F87FF
:100224002E87F70120803180428016FF03C04B2DBA
:1002340050E002C04FEF5FEF842DB1010E94C7036D
:100244005C011068EE84FF8413FD1DC0802F90E0D4
:10025400A816B906C0F4B60180E290E00E94C40278
:100264000150F4CFF101849147FC8081FFEF2F1AF4
:100274003F0A4F0AB60190E00E94C40201110150E6
:1002840021E0A21AB108A114B10461F7F5C08436C3
:1002940011F0893671F5F70117FF08C0608171818B
:1002A4008281938197012C5F3F4F09C060817181E6
:1002B400072E000C880B990B97012E5F3F4F790195
:1002C4001F76312E97FF0AC09095809570956195A1
:1002D4007F4F8F4F9F4F312F3068332E2AE030E00D
:1002E400AE014F5F5F4F0E946602482E4C85441A50
:1002F4004AC0853729F41F7EA12E2AE030E025C0AC
:10030400512F597FA52E8F36C1F018F4883579F016
:10031400BDC0803719F0883721F0B8C0852F8061BF
:10032400A82EA4FE0DC09A2D9460A92E09C014FF16
:100334000AC0A52FA660AA2E06C028E030E005C09A
:1003440020E130E002C020E132E0F701A7FE08C05E
:100354006081718182819381A7014C5F5F4F07C0E7
:100364006081718180E090E0A7014E5F5F4F7A0168
:10037400AE014F5F5F4F0E946602482E5C85451AAE
:100384008A2D8F77382E36FE0DC0932D9E7FA92E91
:100394004B1458F434FE0BC032FC09C0A32DAE7EBE
:1003A400AA2E05C0142DA32C03C0142D01C01B2D8F
:1003B400A4FE0EC0FE01E40DF11D8081803321F402
:1003C400EA2DE97EAE2E08C0A2FE05C01E5F04C061
:1003D4008A2D867809F01F5FA3FC11C0A0FE06C019
:1003E400101788F4040DB02EB11A0EC0101760F463
:1003F400B60180E290E00E94C4021F5FF7CF10179D
:1004040018F4011B02C0B42C00E0A4FE10C0B60115
:1004140080E390E00E94C402A2FE17C0A1FC03C0C6
:1004240088E790E002C088E590E0B6010CC08A2D10
:10043400867859F0A1FE02C08BE201C080E2A7FCDD
:100444008DE2B60190E00E94C4024B1438F4B60168
:1004540080E390E00E94C402BA94F7CF4A94E1E0AA
:10046400F0E0EC0FFD1FE40DF11D8081B60190E07A
:100474000E94C4024110F2CF002309F430CEB60129
:1004840080E290E00E94C4020150F6CFF601878119
:10049400908502C08FEF9FEF62960FB6F894DEBF8F
:1004A4000FBECDBFDF91CF911F910F91FF90EF90C1
:1004B400DF90CF90BF90AF909F908F907F906F9080
:0804C4004F903F902F90089526
:1004CC00FA01AA27283051F1203181F1E8946F9379
:1004DC006E7F6E5F7F4F8F4F9F4FAF4FB1E03ED01F
:1004EC00B4E03CD0670F781F891F9A1FA11D680FBD
:1004FC00791F8A1F911DA11D6A0F711D811D911DF0
:10050C00A11D20D009F468943F912AE0269F112464
:10051C003019305D3193DEF6CF010895462F4770C8
:10052C00405D4193B3E00FD0C9F7F6CF462F4F7023
:10053C00405D4A3318F0495D31FD4052419302D081
:10054C00A9F7EACFB4E0A695979587957795679527
:10055C00BA95C9F700976105710508959B01AC0127
:10056C000A2E06945795479537952795BA95C9F74E
:0C057C00620F731F841F951FA01D0895BF
:100588000F931F93CF93DF93FB01248121FD03C0B9
:100598008FEF9FEF2CC022FF16C047815085258121
:1005A80036814217530744F4A081B1819D012F5F22
:1005B8003F4F318320838C93278130852F5F3F4FB6
:1005C8003087278314C08B01EC01FB010184F2857D
:1005D800E02D0995892BE1F6D80117968D919C910C
:1005E8001897019618969C938E931797CE01DF91D2
:0805F800CF911F910F910895AE
:10060000CF93DF9300D01F92CDB7DEB720E32983CD
:100610002A832B839F938F9380E890E0A0E0AF9391
:100620009F938F93CE0101969F938F930E946603B1
:100630000FB6F894DEBF0FBECDBF8091C00085FF1E
:10064000FCCF89818093C6008091C00085FFFCCFDC
:100650008A818093C6008091C00085FFFCCF8B818A
:100660008093C6000F900F900F90DF91CF91089567
:10067000A0E0B0E0880F991FAA1FBB1F880F991F29
:10068000AA1FBB1F9C01AD01220F331F441F551F22
:1006900060E472E48FE090E00E9489032150310908
:1006A0003093C5002093C40082E08093C000E1EC49
:1006B000F0E0808188618083E2ECF0E080818660F8
:0C06C00080838081808380818083089586
:1006CC00AFE0B0E0ECE6F3E00C94B9030E891F89BF
:1006DC0086E08D831A8309838FEF9FE79F838E8338
:1006EC009E01255E3F4F488D598D6A8DCE01019636
:1006FC000E944200E885F985E00FF11F10822F96C9
:06070C00E4E00C94F00390
:10071200A1E21A2EAA1BBB1BFD010DC0AA1FBB1F03
:10072200EE1FFF1FA217B307E407F50720F0A21B75
:10073200B30BE40BF50B661F771F881F991F1A94E2
:1007420069F760957095809590959B01AC01BD010C
:04075200CF01089536
:100756002F923F924F925F926F927F928F929F92CB
:10076600AF92BF92CF92DF92EF92FF920F931F93B9
:10077600CF93DF93CDB7DEB7CA1BDB0B0FB6F8946A
:08078600DEBF0FBECDBF0994D8
:10078E00CF92DF92EF926B01E82EA82FCB0141158D
:10079E00510531F48C199D09EF90DF90CF9008959B
:1007AE00FC012491A7FD20812223A1F30196A11D16
:0607BE0041505109ECCF8F
:1007C4002A88398848885F846E847D848C849B84DD
:1007D400AA84B984C884DF80EE80FD800C811B81EB
:1007E400AA81B981CE0FD11D0FB6F894DEBF0FBE1A
:0607F400CDBFED010895E8
:1007FA0080E895E20E9438038BE790E00E940003AC
:02080A00FFCF1E
:04080C000C94000048
:00000001FF
