:100000000C9434000C9464000C9464000C94640010
:100010000C9464000C9464000C9464000C946400D0
:100020000C9464000C9464000C9464000C946400C0
:100030000C9464000C9464000C9464000C946400B0
:100040000C9464000C9459000C9464000C946400AB
:100050000C9464000C9464000C9464000C94640090
:100060000C9464000C94640011241FBECFEFD8E000
:10007000DEBFCDBF0E9440000C943E00F894FFCF3D
:10008000259A78942D9A2FEF80E792E021508040B6
:100090009040E1F700C0000085B1807C85B92FEF6A
:1000A00080E792E0215080409040E1F700C00000DE
:0200B000E9CF96
:1000B2001F920F920FB60F92112414B80F900FBE19
:0600C2000F901F9018953D
:0400C8000C94000094
:00000001FF
