:100000000C943A000C948A010C948A010C948A0195
:100010000C948A010C948A010C948A010C948A0134
:100020000C948A010C948A010C948A010C948A0124
:100030000C948A010C948A010C948A010C948A0114
:100040000C948A010C948A010C948A010C948A0104
:100050000C948A010C948A010C948A010C948A01F4
:100060000C948A010C948A010100016780016701E8
:10007000680000E111241FBECFEFD8E0DEBFCDBF86
:10008000E8E6F0E040E017C0B591A59135912591E3
:10009000059107FD0CC095918591EF01F92FE82F8F
:1000A00005900D92A217B307D9F7FE0104C01D9267
:1000B000A217B307E1F7E437F40731F70E947100A4
:0800C0000C946200F894FFCFDC
:1000C800636F6E66696775726163696F6E20636FCF
:0900D8007272656374610D0A0087
:0100E10028F6
:1000E20087B18D7F87B988B1826088B980E895E24F
:1000F2000E94D3000E94010129E130E048EC50E067
:1001020060E081E091E00E94510188E190E09093EB
:1001120066018093650168E170E081E091E00E94F0
:100122006A01319918C087EA91E60197F1F700C098
:100132000000809167018A50809367018A3018F429
:100142008AE080936701809167010E948501909304
:100152008900809388008091C0008823E4F4809114
:10016200C600809300010E947E01809100018134CB
:1001720091F480916701865F809367018B3518F057
:100182008AE580936701809167010E9485019093BF
:100192008900809388008FE493EC0197F1F700C007
:0401A2000000BFCFCB
:1001A600A0E0B0E0880F991FAA1FBB1F880F991FF8
:1001B600AA1FBB1F9C01AD01220F331F441F551FF1
:1001C60060E472E48FE090E00E942F012150310933
:1001D6003093C5002093C40082E08093C000E1EC18
:1001E600F0E0808188618083E2ECF0E080818660C7
:0C01F60080838081808380818083089555
:1002020084B1866084B9109285001092840089E6D8
:1002120098E19093870080938600E0E8F0E080E820
:100222008083808180628083808182608083E1E834
:10023200F0E088E180838081826080838091670121
:100242000E948501909389008093880082E30E9436
:0C025200850190938B0080938A00089532
:10025E00A1E21A2EAA1BBB1BFD010DC0AA1FBB1FBC
:10026E00EE1FFF1FA217B307E407F50720F0A21B2E
:10027E00B30BE40BF50B661F771F881F991F1A949B
:10028E0069F760957095809590959B01AC01BD01C5
:04029E00CF010895EF
:1002A200CF92DF92EF92DC016A01E62E280F391F0E
:1002B200A217B30751F0F6014491E7FC40814D9338
:1002C2004FEFC41AD40AE40AF3CFEF90DF90CF9035
:0202D20008958D
:1002D4000F931F93CF93DF938C01EB0106C0F801BA
:1002E40081918F010E947E0121972097C1F7DF91B0
:0802F400CF911F910F910895B5
:0E02FC009091C00095FFFCCF8093C60008953E
:0A030A002EE3829FC0011124089524
:040314000C94000045
:00000001FF
