:100000000C9437000C946B040C946B040C946B04EC
:100010000C946B040C946B040C946B040C946B04A4
:100020000C946B040C946B040C946B040C946B0494
:100030000C946B040C946B040C946B040C946B0484
:100040000C946B040C946B040C946B040C946B0474
:100050000C946B040C946B040C946B040C946B0464
:100060000C946B040C946B04010001358000112486
:100070001FBECFEFD8E0DEBFCDBFE8E6F0E040E046
:1000800017C0B591A59135912591059107FD0CC03B
:1000900095918591EF01F92FE82F05900D92A21708
:1000A000B307D9F7FE0104C01D92A217B307E1F709
:1000B000ED36F40731F70E948D020C945F00F8943E
:0200C000FFCF70
:0A00C2003F065B4F666D7D077F6708
:0500CC0025640D0A008F
:1000D2002F923F924F926F927F928F929F92AF9206
:1000E200BF92CF92DF92EF92FF920F931F93CF9323
:1000F200DF93CDB7DEB762970FB6F894DEBF0FBEBF
:10010200CDBF6C013A01862E7901FC01108617825F
:10011200848181FFE7C19E012F5F3F4F3D872C877E
:10012200C901A0E8888B998BAA8B9FE3992EF301D2
:10013200849187FC8081882309F4D0C1482D9301E2
:100142002F5F3F4F4F4F853219F03901842E0AC07D
:10015200F901849147FD808192E0690E711C811C36
:10016200853229F4B60190E00E944F03E0CFB12C12
:1001720000E010E01032A0F48B3269F030F48032EB
:1001820059F0833269F410612CC08D3239F080331A
:1001920039F4116026C01260146023C0186021C0B7
:1001A20017FD29C090ED980F9A3078F416FF06C01B
:1001B200AAE0BA9E900D1124B92E13C0EAE00E9F58
:1001C200900D1124092F10620CC08E3221F416FDFD
:1001D20085C1106406C08C3611F4106802C08836DE
:1001E20051F4F301849187FC8081FFEF6F1A7F0A3B
:1001F2008F0A8111BFCF982F9F7D9554933028F499
:1002020024E0E20EF11C99820FC0833631F083376D
:1002120091F0833509F063C027C0F701808189839B
:1002220097012E5F3F4F7901288839884A88AA248E
:10023200A394B12C17C0A7014D5F5F4F5F874E8714
:10024200F70120803180428016FF03C04B2D50E021
:1002520002C04FEF5FEF842DB1010E941A045C01CE
:10026200EE84FF841F7718C097012D5F3F4F3F87B1
:100272002E87F70120803180428016FF03C04B2D6C
:1002820050E002C04FEF5FEF842DB1010E941A04CB
:100292005C011068EE84FF8413FD1DC0802F90E086
:1002A200A816B906C0F4B60180E290E00E944F039E
:1002B2000150F4CFF101849147FC8081FFEF2F1AA6
:1002C2003F0A4F0AB60190E00E944F03011101500C
:1002D20021E0A21AB108A114B10461F7F5C0843675
:1002E20011F0893671F5F70117FF08C0608171813D
:1002F2008281938197012C5F3F4F09C06081718198
:10030200072E000C880B990B97012E5F3F4F790146
:100312001F76312E97FF0AC0909580957095619552
:100322007F4F8F4F9F4F312F3068332E2AE030E0BE
:10033200AE014F5F5F4F0E94F102482E4C85441A76
:100342004AC0853729F41F7EA12E2AE030E025C05D
:10035200512F597FA52E8F36C1F018F4883579F0C8
:10036200BDC0803719F0883721F0B8C0852F806171
:10037200A82EA4FE0DC09A2D9460A92E09C014FFC8
:100382000AC0A52FA660AA2E06C028E030E005C04C
:1003920020E130E002C020E132E0F701A7FE08C010
:1003A2006081718182819381A7014C5F5F4F07C099
:1003B2006081718180E090E0A7014E5F5F4F7A011A
:1003C200AE014F5F5F4F0E94F102482E5C85451AD5
:1003D2008A2D8F77382E36FE0DC0932D9E7FA92E43
:1003E2004B1458F434FE0BC032FC09C0A32DAE7E70
:1003F200AA2E05C0142DA32C03C0142D01C01B2D41
:10040200A4FE0EC0FE01E40DF11D8081803321F4B3
:10041200EA2DE97EAE2E08C0A2FE05C01E5F04C012
:100422008A2D867809F01F5FA3FC11C0A0FE06C0CA
:10043200101788F4040DB02EB11A0EC0101760F414
:10044200B60180E290E00E944F031F5FF7CF1017C2
:1004520018F4011B02C0B42C00E0A4FE10C0B601C7
:1004620080E390E00E944F03A2FE17C0A1FC03C0EC
:1004720088E790E002C088E590E0B6010CC08A2DC2
:10048200867859F0A1FE02C08BE201C080E2A7FC8F
:100492008DE2B60190E00E944F034B1438F4B6018E
:1004A20080E390E00E944F03BA94F7CF4A94E1E0D0
:1004B200F0E0EC0FFD1FE40DF11D8081B60190E02C
:1004C2000E944F034110F2CF002309F430CEB6014F
:1004D20080E290E00E944F030150F6CFF60187813F
:1004E200908502C08FEF9FEF62960FB6F894DEBF41
:1004F2000FBECDBFDF91CF911F910F91FF90EF9073
:10050200DF90CF90BF90AF909F908F907F906F9031
:080512004F903F902F900895D7
:10051A008FEF84B987B18F7D87B988B1806288B936
:10052A0080EC92E10E948B038091C0008823F4F44E
:10053A008091C6008053809332018A30A8F490E0FB
:10054A00A0E08E539F4FAF4FFC018491A7FD80819D
:10055A0085B92FEB84ED91E0215080409040E1F77E
:10056A0000C0000015B802C080E885B93599DCCF13
:10057A0087EA91E60197F1F700C00000C0E029C0C0
:10058A001F92CF938CEC90E0A0E0AF939F938F9350
:10059A0080E091E09F938F930E94B9039093340176
:1005AA0080933301BC0180E091E00E9450049FE5F2
:1005BA002AEE80E0915020408040E1F700C0000020
:1005CA00CF5F8DB79EB707960FB6F8949EBF0FBE42
:0805DA008DBFCA30A8F2A8CFC2
:1005E200FA01AA27283051F1203181F1E8946F9362
:1005F2006E7F6E5F7F4F8F4F9F4FAF4FB1E03ED008
:10060200B4E03CD0670F781F891F9A1FA11D680FA5
:10061200791F8A1F911DA11D6A0F711D811D911DD8
:10062200A11D20D009F468943F912AE0269F11244D
:100632003019305D3193DEF6CF010895462F4770B1
:10064200405D4193B3E00FD0C9F7F6CF462F4F700C
:10065200405D4A3318F0495D31FD4052419302D06A
:10066200A9F7EACFB4E0A695979587957795679510
:10067200BA95C9F700976105710508959B01AC0110
:100682000A2E06945795479537952795BA95C9F737
:0C069200620F731F841F951FA01D0895A8
:10069E000F931F93CF93DF93FB01248121FD03C0A2
:1006AE008FEF9FEF2CC022FF16C04781508525810A
:1006BE0036814217530744F4A081B1819D012F5F0B
:1006CE003F4F318320838C93278130852F5F3F4F9F
:1006DE003087278314C08B01EC01FB010184F28566
:1006EE00E02D0995892BE1F6D80117968D919C91F5
:1006FE001897019618969C938E931797CE01DF91BB
:08070E00CF911F910F91089596
:10071600A0E0B0E0880F991FAA1FBB1F880F991F82
:10072600AA1FBB1F9C01AD01220F331F441F551F7B
:1007360060E472E48FE090E00E94DC03215031090E
:100746003093C5002093C40082E08093C000E1ECA2
:10075600F0E0808188618083E2ECF0E08081866051
:0C076600808380818083808180830895DF
:10077200AFE0B0E0EFEBF3E00C940C040E891F89BC
:1007820086E08D831A8309838FEF9FE79F838E8391
:100792009E01255E3F4F488D598D6A8DCE0101968F
:1007A2000E946900E885F985E00FF11F10822F96FB
:0607B200E4E00C94430496
:1007B800A1E21A2EAA1BBB1BFD010DC0AA1FBB1F5D
:1007C800EE1FFF1FA217B307E407F50720F0A21BCF
:1007D800B30BE40BF50B661F771F881F991F1A943C
:1007E80069F760957095809590959B01AC01BD0166
:0407F800CF01089590
:1007FC002F923F924F925F926F927F928F929F9225
:10080C00AF92BF92CF92DF92EF92FF920F931F9312
:10081C00CF93DF93CDB7DEB7CA1BDB0B0FB6F894C3
:08082C00DEBF0FBECDBF099431
:10083400CF92DF92EF926B01E82EA82FCB014115E6
:10084400510531F48C199D09EF90DF90CF900895F4
:10085400FC012491A7FD20812223A1F30196A11D6F
:0608640041505109ECCFE8
:10086A002A88398848885F846E847D848C849B8436
:10087A00AA84B984C884DF80EE80FD800C811B8144
:10088A00AA81B981CE0FD11D0FB6F894DEBF0FBE73
:06089A00CDBFED01089541
:1008A0000F931F93CF93DF938C01EB0106C0F801E8
:1008B00081918F010E94640421972097C1F7DF91F5
:0808C000CF911F910F910895E3
:0E08C8009091C00095FFFCCF8093C60008956C
:0408D6000C9400007E
:00000001FF
